:4000000000400020110000004D0400004D04000010B500F023FAC046F8B51B4C1223236000F0CEFB194801F05FF8012000F0E8FB182000F0CBFA164A164B1A60164D802682
:40004000F6052E60154A116802230B431360144A144B1A600027144B1F60144A136808218B431360FA20C00000F02AFB104800F01DFB802212060F4B1A600F4B1F602E6076
:4000800011232360F8BDC04630001040001BB7000600008004010B400C020B4078002E402D3E00007C002E4064F02E406CF02E40DC05000008010B4000010B4010B572B618
:4000C00000221A4B1A6000240FE019486200131959000B00411889881A5AC31858880004104300F0ADF90134E4B2012CEDD90023104A1360104A136099231B040F4A1360F1
:400100000F4A13600F490878062206230343DBB20B700D4B1A6001210C4B19600C4B1A60FFF77AFF00F07CF910BDC0466CF02E4098330100000002400800044010500F406D
:4001400020500F4000700F4008010440000204400802044010B5064C2378002B07D1054B002B02D0044800E000BF0123237010BD901000200000000094330100084B10B50F
:40018000002B03D00749084800E000BF07480368002B00D110BD064B002BFBD09847F9E7000000009410002094330100A00B00200000000010B50B4A117801234B40DBB243
:4001C0001370002B03D0002000F0E4FC02E0012000F0E0FC082000F0CDFC042000F0A4FC10BDC046A40B002000B585B000F0DEFC434243416A46D3700332084B1B78022B90
:400200000AD101A8103303810192012383800023034A00210EF0F6FC05B000BD662200206C22002010B504000121002000F060FBFA20C0016043FA21890001F07BF8010093
:40024000002000F0C9FB0121002000F08DFB012000F0A4FB002000F039FB0028FAD010BD10B582B00C00272817D002D8012805D048E0282841D04C2812D043E001AC20005D
:4002800002F0ACFB07232370200002F0F5FB002000F00AFD1C4B186034E0FFF7A5FF31E08B89122B29D1081D2E33184A00210EF0A9FC002821D163681B78302B04D1FA2078
:4002C0008000FFF7AFFF11E0402B04D1FA204000FFF7A8FF0AE0502B03D1FA20FFF7A2FF04E0602B02D16420FFF79CFF074A13785078000218430DF07DFA002000F0D4FC1C
:40030000014B186002B010BD4C2200206C220020074B1B78012B02D0022B04D006E00022034B1A7002E00022014B1A707047C0465022002010B500F0E0FE040003F06CFA61
:40034000062801D0042809D1154B1B78042B05D10222134B1A7000F0EBF91CE002281AD00F4B1B78042B0FD102220D4B1A70022000F004F900F0FAF800F0CCF900F0ECF814
:40038000002000F0FBF806E0032B04D10122044B1A7000F0BFF9200000F0B3FE10BDC0465022002010B5184800F0C8F8002000F0A5F862B600F092FB032000F043F91348C6
:4003C00000F01AFC124B186001E001F0ADF9114B1B78012BF9D000220F4B1A7001F0A4F9032001F099F90C4B1B78002B06D10B4B5B68012B02D10422074B1A70FFF788FF09
:40040000FFF798FFEAE7C046B5010000610200004C2200206622002050220020A40B00200323044A1360044A13600022034B1A607047C0463000304030003140000E3F408B
:4004400010B50A00002101F02FF910BD10B501F0E7F803680C2B00D1FEE7FEE770B50F4E0F4D13E029686B68AC68002202E001C901C30432A242FAD1E868002202E000219F
:4004800002C304328242FAD11035013E002EE9D101F0CCF8FFF786FFFEE7C046010000002436010010B50E4A136801218B43136000230AE0032B03D89A000A49505800E049
:4004C00009489900094A885001332F2BF2D9FFF7F5FD034A116801230B43136010BDC04600001040000000004D04000000000020014B18667047C0460000002010B50400F7
:4005000000F0FBFD044A1368C0218B43A4011C43146000F0F6FD10BD08E400E080225200014B1A607047C04600E100E080225200014B1A607047C04680E100E010B50400AE
:40054000FFF7F4FF2000FFF7D3FF0320FFF7D6FFFFF7E4FF10BDC046034A1368802109060B4313607047C04608010B40024A13685B005B081360704708010B4010B50400FA
:4005800000F0BBFD044A136807218B430C401C43146000F0B6FD10BD00010B4010B5040000F0ABFDE304E022920313401900054C2368054A1A400B001343236000F0A1FDB7
:4005C00010BDC04600010B40FFFFC7FF10B586B0040000F092FD0E4B1B6800930D4B1B680193033C0C4B1B5D02930C4B1B68039304AA0B4B04936B4605930A4B1A600A49A3
:400600000A4A11601B6800F07CFD06B010BDC04608010B4000010B40A433010030001040B6EA0000080010401700008004001040024B1B68012018407047C0460C002E4025
:4006400001BE704710B504000A4B1B6807221340022B0BD000F051FD03210C40064A13688B432343136000F04CFD02E00020FFF7E7FF10BD00010B4064F02E4010B5040004
:4006800006E0084B586800F02FFD074B9C46644480231B029C42F4D8024B9868604300F023FD10BDB40B00200080FFFF10B5034B1B7B584300F018FD10BDC046B40B0020BA
:4006C00010B504000F4A116801230B4313600E4A0E4B1A600E4A1368802109020B431360002809D100200CE00120FFF7DFFFFFF79FFF002804D1013C002CF5D1102000E03C
:40070000002010BD60F02E400220000078002E4010002E4010B500F0F0FC044A136804218B43136030BF00F0ECFC10BD10ED00E030B583B000F0E1FC04000E4A13685B0030
:400740005B0813600C4B1B889BB20C4A13600C4A116804230B4313600A4D2B6801930220FFF71CFF30BF019B2B60200000F0C9FC03B030BD00000B4052F1FF0F0C000B40AD
:4007800010ED00E000010B40034B1B68002B01DA012000E00020704704010B40024B1868800F80077047C0460C020B40034B1868C0231B02184000D00120704700010B40FE
:4007C00010B50D4B1A6801218A431A601A68022082431A60094A10683024A043203C204310601068093CA043014311601A68802109060A431A6010BD00F02E4000FF2E40F7
:4008000070B51D4B1B6801241C40002802D0012816D02BE0184B19680122914319601968022081431960154B19682E3081432038014319601968093881430A431A6018E082
:400840000D4B1A6802218A431A600C4A10680725A84301431160116830208143103801431160196801220A431A6002E00020FFF7E7FE200070BDC04600F02E4000FF2E40AA
:4008800010B500F03AFC044A1368C02109020B43136000F036FC10BD00010B4010B500F02CFC08490A68084B1A408024E40122430A600A6813408022120213430B6000F0CB
:4008C00020FC10BD00010B40FF3FFFFF10B50400022802D90020FFF7B3FE044B1868E4000134E0400123184010BDC04610020B4070B504000D00022802D90020FFF7A0FE4F
:400900002000FFF7E3FF00280AD1064A1368E40003210800A04083430D40A5401D43156070BDC0460C020B4010B5084BDB68002B0BD0074A136801218B431360034C21693F
:400940000020FFF7D5FF0023E36010BDAC10002010020B400300034A1068DB00D8400323184070470C020B4070B504000D00012802D90020FFF764FE2000FFF7A7FF002842
:4009800009D105490B68E40002340122A2409343A5401D430D6070BD0C020B4010B504000C4A136803431360C30704D50020FFF78DFF0028FAD0E30504D50120FFF786FF88
:4009C0000028FAD0E30304D50220FFF77FFF0028FAD010BD10020B4070B505000C00012802D90020FFF72CFE0D4B1B689B0F01D1C92000E05D20FFF759FE0A490B682D013C
:400A0000094AAA409343AC401C430C60044B1B689B0F01D1432000E01F20FFF747FE70BD0C020B4008020B40FFFF000010B5012809D0002802D0022809D00BE0084B186886
:400A40000004000C0AE0064B1868000C06E0054B186803E00020FFF7F3FD002010BDC04600020B4004020B4010B50020FFF72EFF002803D00022184B5A6121E00120FFF714
:400A800025FF002803D00122134B5A6118E00220FFF71CFF002803D002220F4B5A610FE00D4C0123E360002363610020FFF752FF206100210020FFF71BFF0120FFF76EFF29
:400AC000054B5869FFF7B2FF0400034B5869FFF7ADFF8442F9D010BDAC10002010B5FFF765FE00281CD1FFF74FFE002818D0FFF755FE00280FD100F000FB0400FFF7B4FFE2
:400B0000084A13685B005B081360FFF70DFF200000F0F7FA04E0034A13685B005B08136010BDC04604010B4070B5050000F0E5FA0400FFF73BFE002803D0FFF7AFFE0121C8
:400B400000E0002108482840084A1568084B2B40184310601368012901D1FFF791FE200000F0CFFA70BDC0460404040010020B40FBFBFBFF054A1168054B184008431060D8
:400B8000024B1A68024B1A42FAD1704710020B4008080800044A1368DBB201218B430840184310607047C04600010440024B1B68012018407047C0460401044010B500F067
:400BC00091FA10BD10B50024064B1C70064B1C70064B1C70FFF7F2FF054B1C70054B1C7010BDC0466F220020682200206E220020542200205C22002010B590B0040014222D
:400C000020490BA800F047FD20231F4AD35C002B05D1FFF7D7FF012120231B4AD154002C2DD01A4B1C6008A805AA426006AB0893002101811B311980598017391971002318
:400C400013701231694400F04BFE002818D1104B0293104B0193052300930BABAE2212010D490E4800F092FD002809D101220C4B1A700E3218210B480DF0ACFF00E00120DE
:400C800010B010BDD4330100D41000205822002079020000003F0100C0000020050E000066220020E833010010B502282FD81C4B1B78042B2DD11B4B1B785B072CD40028EF
:400CC00009D1194B0A221A861632596A0A805B6A10325A800CE001280AD1134B00221A86C822D200596A0A805B6A8022D2015A800E4B18700C4820300BF0B0FB00280DD116
:400D0000084A117804230B43DBB2137006E0012004E00420FF3001E00420FF3010BDC046662200206F220020C80B00206E2200207047C04603784078000218437047C04608
:400D400070B5050083890F2B1FD1043031332A0000210DF057FF041E11D16868FFF7EAFF830706D50A4B1B68290082204000984705E0074B1B6829000620FF309847054A9D
:400D8000137801218B43137000E00024200070BD582200206F220020024B00225A701A707047C0466C22002010B582B00400FFF7C7FF0A4B1B78DB070ED4002809D001A95D
:400DC00012238B70A3890B80C87020680CF09AFC02E020680CF00EFD02B010BD6F2200208379002B07D000200BE0C25C002A07D10133DBB200E00023052BF6D9002000E02D
:400E000001207047F0B583B004000D00A14A117801230B43DBB21370272800D1C2E012D8062800D185E004D8012821D005287CD01FE1242800D1B1E0262800D1BAE02128CC
:400E400000D016E189E0422800D1FEE006D8282800D1ABE0412800D1E0E00AE14C2800D1FEE0FA2800D1FFE0432800D001E1EFE001AE0727377000237370300002F02CFD04
:400E8000377001237370300002F026FD00F040FC814B1E683000FFF7A3FF00280CD0300000F046FC7C4E00213068FFF741FF30680121FFF73DFF2AE0784B1F78784B187837
:400EC0008001FC263601020032403F2139401143744B1B781B03F822520213401943724B1B785B04FE22120413400B436F4E33701A0A72701B0CB370300000F019FC00215E
:400F00003000FFF715FF01213000FFF711FF00200BF048F901A83F230370002343700BF05FF90422624B1A70A3E02A78614B1A709FE02B78002B00D09BE06B78002B06D1E7
:400F40005D4B0022DA809A805C4A1A606B60514A137801218B4313708BE04E4B1B789B0600D586E0564B1B78102B02D10522544BDA70544B187852490BF032FA01AB1880B5
:400F8000002804D0504B1B6801A936209847414A117801230B43DBB213706AE06A784B4B1A7066E00222424B1A7062E00422404B1A705EE03E4B1B78022B5AD0354A12789E
:400FC000D20756D5334A1278520708D50322384B1A70304A137804218B43137049E02D4A1278120708D50422314B1A70294A137808218B4313703CE0032B3AD104222C4B4D
:401000001A70334B1B78002B33D10120FFF74CFE00282ED10322264B1A702AE0294E02222900300000F037FB0022224B1A7033785A00D21853002749C918274B9C46614479
:401040000622264800F027FB13E0FFF7A5FE10E06988162900D9172128880CF05DFB08E02800FFF7A1FE04E01D4A117801230B431370084B1A7811231A4209D0054A137871
:4010800001218B431370104B1B6829002000984703B0F0BD6F220020FC0B00207CF1FF0F7DF1FF0F7BF1FF0F78F1FF0F000C00206622002068220020F8100020A00B002026
:4010C000CC0C00206C220020582200205C2200206E220020003F01007902000060220020542200207047C0460230800803D00138FDD1C046C046C0467047EFF3108072B6BB
:40110000704780F3108870470160704701607047324B1A781202324B1B781A43314B1B781B02314909780B4330498B4201D1072A06D0D42109018B4206D1042A04D102E05A
:401140002B4B042200E02A4B2A490B602A4B1A602A4B1B781B022A4A1278134380229201934202D0002B02D002E0264B00E0254B254A1360254B1B781B02254A127813436B
:40118000244A934205D0244A934204D0052B05D103E0224B02E0214B00E0204B204A1360204B1B681B09204A1268AA2A15D1012B13D9164B1B780E2B0FD11C4B1B781B0248
:4011C0001B4A127813431B4A13601B4B1B781B021A4A127813431A4A13607047D9F0FF0FD8F0FF0FDFF0FF0FDEF0FF0F580B0000580D00006C002E4074002E40DBF0FF0F27
:40120000DAF0FF0F0220000078002E40DDF0FF0FDCF0FF0F0F0F000005050000050F000080002E40EC0F00F0E00F00F06DF2FF0F6CF2FF0F84002E406FF2FF0F6EF2FF0F7D
:4012400094002E4010B5FFF731FA10BD10B5FFF715FA10BD10B500F04BF810BD10B500F04FF810BD10B500F04BF8034800F02AF8032000F02DF810BD2D13000010B50248EB
:4012800000F046F810BDC0462D1300000220FF307047C0462B2070472B2070472B2070472B2070472B2070472B2070472B2070472B2070472B2070472B2070472B207047C9
:4012C0007047C046014B18677047C0460000002010B50400FFF711FF044A1368C0218B43A4011C431460FFF70CFF10BD0CE400E080225201014B1A607047C04600E100E0F3
:4013000080225201014B1A607047C04680E100E010B50400FFF7F4FF2000FFF7D3FF0320FFF7D6FFFFF7E4FF10BDC04610B512F01DF810BD002243088B4274D303098B42BD
:401340005FD3030A8B4244D3030B8B4228D3030C8B420DD3FF22090212BA030C8B4202D31212090265D0030B8B4219D300E0090AC30B8B4201D3CB03C01A5241830B8B42EC
:4013800001D38B03C01A5241430B8B4201D34B03C01A5241030B8B4201D30B03C01A5241C30A8B4201D3CB02C01A5241830A8B4201D38B02C01A5241430A8B4201D34B027F
:4013C000C01A5241030A8B4201D30B02C01A5241CDD2C3098B4201D3CB01C01A524183098B4201D38B01C01A524143098B4201D34B01C01A524103098B4201D30B01C01AB4
:401400005241C3088B4201D3CB00C01A524183088B4201D38B00C01A524143088B4201D34B00C01A5241411A00D20146524110467047FFE701B5002000F0F0F802BDC04640
:401440000029F7D076E7704703460B437FD4002243088B4274D303098B425FD3030A8B4244D3030B8B4228D3030C8B420DD3FF22090212BA030C8B4202D31212090265D062
:40148000030B8B4219D300E0090AC30B8B4201D3CB03C01A5241830B8B4201D38B03C01A5241430B8B4201D34B03C01A5241030B8B4201D30B03C01A5241C30A8B4201D35C
:4014C000CB02C01A5241830A8B4201D38B02C01A5241430A8B4201D34B02C01A5241030A8B4201D30B02C01A5241CDD2C3098B4201D3CB01C01A524183098B4201D38B01BC
:40150000C01A524143098B4201D34B01C01A524103098B4201D30B01C01A5241C3088B4201D3CB00C01A524183088B4201D38B00C01A524143088B4201D34B00C01A524106
:40154000411A00D201465241104670475DE0CA0F00D04942031000D34042534000229C4603098B422DD3030A8B4212D3FC22890112BA030A8B420CD3890192118B4208D34D
:40158000890192118B4204D389013AD0921100E08909C3098B4201D3CB01C01A524183098B4201D38B01C01A524143098B4201D34B01C01A524103098B4201D30B01C01AAC
:4015C0005241C3088B4201D3CB00C01A524183088B4201D38B00C01A5241D9D243088B4201D34B00C01A5241411A00D20146634652415B10104601D34042002B00D54942EF
:40160000704763465B1000D3404201B5002000F005F802BD0029F8D016E770477047C046014B18687047C046881000200E4B70B500251E000D4CE41AA410A54204D0AB0033
:40164000F35898470135F8E711F0DAFF084B00251E00084CE41AA410A54204D0AB00F35898470135F8E770BD0C3601000C3601000C3601001436010030B50024A24208D00A
:40168000035D651C0C5DA34201D0181B02E02C00F4E7002030BD002310B59A4203D0CC5CC4540133F9E710BD03008218934202D019700133FAE77047134A1088810703D060
:4016C0008107890F401A001D11791030484381B25088820703D08207920F801A001D800040180A494030098980B2CA0701D0503080B2890706D504495422091F0978514398
:40170000081880B270470000D80C00200C11002010B501F0DBFF10BD10B501F0DDFF10BD10B501F0EFFF10BD10B500F05BFA10BD10B50749044609780220002907D12046F2
:4017400002F038F8002802D120460AF02FFE10BD740E002070B504460120002C12D02368002B0FD0616800290CD0074D06222889208118462968FFF78EFF696860680978F5
:401780000170002070BD00000C110020FFB585B0002768460E9D07734F481C460078002802D0082009B0F0BD10990F9801900095029105A807C800F007F90028F2D1694643
:4017C000264603AB84460873002C19D0002115E08A00B75A082F09D990198078002805D0083FB7521878401C187005E0002914D00027B75290198770491CC9B2A942E7D302
:4018000060460028CED10F98002809D0109901F00DFB002804D00120C4E701208446EFE701F070FF2D480021416081600599016021888180022D07D3A1798171A17AC171E5
:40184000A1890181218A418100211EE0481C19E082008B00A75AE65ABE46BE4211D26F463E80B4461E190296B678BE7001967646E6521719029EBB78B3706646A652019E12
:40188000BE70401CA842E3D3491CA942DED3134822460C3000906846037B0799069800F01BF90028B8D168460B4C007B60700B480C3001F057FF0028AED1084907480C31A5
:4018C00007F044FE0028A7D107F05EFE0028A3D10121217066E70000D20C002000110020F8B5054636480F460078002802D002242046F8BD002F60D000243249002D16D062
:401900002A89D0070DD02868002808D003881B3BE12B04D24088FB2801D81B2801D2012409E0900707D56868002804D1F7E70020088108604860002CDAD122482E890681AF
:401940001F481B21801D01804180042101711C490020891C0870F00705D019480622801D2968FFF798FE1749B00703D56A68144812788270124D0E46AD1D281F0D6048602B
:4019800001F03EFF284601F02DFF30890EF04AFA30890DF033FC28880DF036FC30890EF0ABFB03461033FFF787FE1F21C018890140183880A91F88809AE7012498E70000A4
:4019C000D20C00200C110020FFB58446384F1C460020BB883F78054602460646002F11D100290ED0029999420BD36146002908D0002C06D00A99002906D02E4B0B9999429C
:401A000002D2012004B0F0BD002144E0AB001F19BF78002F3BD0E35A002B38D07B43591889B22B0000F04AF8050410161C253100A7782388BC46FF27233BEB37BB4222D27C
:401A40006346032B1FD322E0A388002B1FD0302B19D31CE02389002B19D0282B13D316E0A289002A13D01346134F233BBB420AD20DE0268A002A0AD033460F4F233BBB4227
:401A800001D2964203D901200EE0002001E000280AD16D1CEDB2099B9D42B7D31C2463435B1802998B42ACD89642AAD8AAE70000D20C002079020000BAFF000030B4744657
:401AC000641E2578641CAB4200D21D46635D5B00E31830BC18470000FFB583B0002469460C801F4606468C80002806D00598002803D004983043800701D0012466E0002F2A
:401B0000FBD03449049809888842F6D3FFF7B6FBFFF7A4FB00F016FC002855D100F07EFD002851D12C49084601F0B4F905042D0C4AD12A480499066081800021C18007813E
:401B40000C98007AC00704D0684601F0F4FD040007D10C98007A800703D501A801F0F4FD0446BF1DFEB2002C20D13146059800F05DF804001AD10EF0CDFA040016D16A469D
:401B80001088928808368518144AF1B29088D288AEB29319984207D3401B801A80B201F069FC050007D000E0FF25012400F062FA002D04D008E0F8B200F01CF9F6E700F032
:401BC00085FA07490120087000F0CEFB204607B0F0BD0000D60C0020191D000018110020DE0C002010B503480078012801D101F0E3FA10BDDE0C002070B5084B0446DA8823
:401C00009E8803205518B54206D8186880182060D8884018D880002070BD000018110020014800897047000018110020F0B587B007460D4600208900009006916846FFF719
:401C4000DBFF844600285DD1304800990160002117E02E4B88001A680629115406D22C4C0419667882185670628805E0C419203CA67A8218567022891B68C018491C428069
:401C8000C9B2A942E5D300242DE0601CC2B2059025E01E4FA30039689600581840887118039604904E88B04217D938466F46FE80B6464F786E4677710297049F4F800168DA
:401CC000039F5E18767879184E700168764659184E800068029F18184770521CD2B2AA42D7D30598C4B2AC42CFD36046002809D168460699FFF780FF8446002802D1054993
:401D000000980860604607B0F0BD0000E00C002038360100E40C00207047000010B5002809D005494A68002A05D0011F08788000105801F04DFB10BDE00C002010B50446E9
:401D4000FFF76EFFC0B2801DA0420CD307484068002808D0A100405801F0ACFA002801D00470001D10BD002010BD0000E00C0020F8B516460D460446FFF752FFC0B2801D1D
:401D8000A04203D20020C0430090F8BDB2B2E9B2684601F0B5FA0099481C03D0024AA000526811500098F8BDE00C0020F8B50746FFF736FF801DC6B20A49002005460C681B
:401DC0000DE06178002907D06188B94202D32078FFF7B4FF002804D1241D6D1CEDB2B542EFD3F8BDE00C002010B5002801D0FFF795FF10BD70B506460948002504680BE0F0
:401E00006178002905D062882078121D0023FFF7AFFF241D6D1CEDB2B542F1D370BD0000E00C0020FFB581B00A9F16000C4620D000F0F6F8054604281BD0002F0CD0384647
:401E4000FFF7B4FF20492A0151184860002810D03A460499FFF71FFC1B4928010E504618778101980570200406D47D20C000444304E0FF2005B0F0BD6404640C00F0BEF8CA
:401E80000746042807D000F053FAA0420BD800F04FFA201A03E0204600F0AEFA0020F06035720020E6E700F043FA009000F0BAFA00980121001B009000F0F0F802493A0154
:401EC00051180098C860E6E724110020F8B5042801D3FF20F8BD060116483418217A042903D0E068002802D017E00020F8BD00F01FFA054600F096FA00F0A0F804280CD058
:401F000001010C480F18F8680021451900F0C6F80020F860284600F06FFA6068054D002801D0FFF761FF042020720020A8516081E060DAE724110020FEB500266A463046EA
:401F400001232549050169180D7A042D02D0C96800291BD000211154401CC0B20428F0D300246846005D002830D01B48210108184189476805680291002101604160042278
:401F800041810272C160002E02D015E01354E3E700F054F804280ED001010F4808180190C6680021304600F079F801980021C160304600F021FA0126002D07D0384602998E
:401FC000A847002F02D03846FFF70EFF641CE4B2042CC6D3FEBD0000241100200EB5002005216A460090118150810348694600680EF017FF0EBD0000E80C0020074A00200F
:40200000010189180B7A042B02D0C968002903D0401CC0B20428F3D370470000241100200549002002015218127A042A03D0401CC0B20428F6D370472411002030B50A4B0D
:4020400004200A4C00210A011219157A042D06D0D268002A03D09A4201D808461346491CC9B20429EFD330BDFFFF0000241100207047000030B50020074C054604230201D3
:4020800011190B72A5504D60401C4D81C0B2CD600428F4D330BD00002411002030B5094C00231A011219157A042D04D0D568002906D02D18D5605B1CDBB2042BF1D330BD08
:4020C0002D1AF7E724110020002070471CB5002469460C70142001902346054A05480EF0A5FE04480068401C00D1FF2420461CBD49210000E80C00203EB5124A0146FF208E
:4021000000230124126800290DD0012914D0042908D104206946009308814B8110460EF080FE80B23EBD6846009304814381694610460EF071FEF4E76846009304814381A8
:402140006946EBE7E80C002070B545890468416800890300FFF7B2FC08280509091E22282628002006F0A2F81EE0022908D0C8B22A4621460CF096FF2046FFF735FE13E080
:4021800002202A4621460CF08DFF2946204600F00DF809E000200EF043FB05E02046FFF7CBFE01E0FFF78CF8002070BD014B0022DB681847EC0C002070B5448905680089CD
:4021C000022803D0032809D0FF2070BD2246094C0023A46829460120A04708E0FFF7A0FA241DA2B200232946022007F062F8002070BD0000EC0C0020704700000248002196
:402200004160018041807047EC0C002070B50C46002186B016460391012802D0022859D116E003A9012007F099F801281BD1039D324621462846FFF72EFA009528780190AE
:402240000220694608814E816846FFF7B5FF41E0214D002B686809D0049004A9022007F07DF801281DD0022006B070BD002812D0298840182146FFF70EFA288800248019AB
:4022800080B228806988091D884206D12C801348FFF792FF03E00320E6E788421AD96C6018E004986860E278A378110219430B4A698000231060E356536003231381518119
:4022C000A1788170E178C1706178417021780170042028800020C7E7EC0C0020641100203EB515460C46022803D004280CD000203EBD0091019002206946088107484A8119
:4023000000680EF08EFD07E00CF0CCFE044B0022DB6829462046984701203EBDE80C0020EC0C0020014AD16090607047EC0C0020034801688068081A0A21484300097047E0
:402340007011002010B5FEF78DFF4C2204490548FFF7A1F903490120C870002010BD0000543601007415002010B5FEF773FF10BD70B5134C2368002B08D0207B1149C2074F
:4023800005D04008400020738868A08070BD88680B4AA18880B29268814203D90A4D691A091802E0814202D2411A5118A160A080A0689842EAD30EF051FD00F013F870BD4B
:4023C00070110020C0102E40FFFF000010B508461946FFF7A7FF10BD704710B5FFF780FF10BD000003480021016041608160C1607047000070110020024610B5FF20002A49
:402400000CD0FFF7EFFF064C0321207B0843207310010A21FFF714F82060002010BD00007011002000B504480A21806848430209FFF7D8FF104600BD701100200248007BB1
:402440008007C00F704700007011002010B54B490868002802DA4A4B01221A70022290430860484800694549C00B4031096A0246C907C90F0A4259D0012000F05DFB3F48B5
:402480000E216C30FEF742FE3E4820218430FEF73DFE3C4814219C30FEF738FE3948FF21C131A430FEF732FE3648FF212F31B030FEF72CFE33483449BC30FEF727FE3148C1
:4024C0003249AC30FEF722FE30492E48491CB430FEF71CFE2B482E49B830FEF717FE29482C49CC30FEF712FE26482B490830FEF70DFE24482949A830FEF708FE21482849C1
:402500008830FEF703FE1F4826498C30FEF7FEFD1C481921C9029030FEF7F8FDFEF7F8FDFEF7B4FEC0B2022812D01FE000290BD0002101420AD0114801216030FEF7E6FD25
:402540000120FEF783FE97E70121F2E7FF2010BD15491648FEF7DAFD14481549001DFEF7D5FD124800210830FEF7D0FD54200449C043891C0870002010BD000000F02E4098
:40258000FC0C002000002E40320300002F3F00003102000010520000EC160000FA12000031D000003AE300009956000080012E40F80F000070B50646581C80B245086D006B
:4025C000002408E0304600F0C1F81055000A1119A41C4870A4B2AC42F4D3D80705D0D0182038D15CC47FD454C17770BD30B50A4C002100195B1E07E0541864782502545CAF
:402600002C430480891C89B29942F5DB994201D1515C018030BD000000102E4010B5FF2000F08AFA0F49FF2048700E481021801D41800121417001700A490020C91C487016
:40264000FFF704FF04000AD100F02EF907210648FEF75AFD044807211830FEF755FD204610BD0000FC0C0020CC112E4070B5002405465B1E0AE0284600F068F8010A161911
:4026800071702D1D1055A41CADB2A4B29C42F2DB9C4203D1284600F059F8105570BD000070B500210A4D5B1E0AE0541864782602545C344346193480001D891C80B289B29E
:4026C0009942F2DB994202D1515C4019018070BD00102E40F0B50599091FCFB200217E1E0BE0541864782502545C2C43164D45192C80001D891C80B289B2B142F1DBFC07D2
:4027000012D01C78515C24020F4A0C4381180C809C785D78001D210280B2294384182180001D80B2D9780CE059781A7809021143054A84182180001DD9789B78090280B2E7
:40274000194380180180F0BD00102E40014940180088704700102E4010B50B490020487000F0A2F8002000F00DFA002000F0FAF907210648FEF7C8FC044807211830FEF7E5
:40278000C3FC002010BD0000FF0C0020CC112E4010B50C48007801280FD101F003F800F0DDF8002804D10848016A490849000162054802213030FEF7A9FC02490020C91E3B
:4027C000087010BDFF0C002040F02E4010B50B46062812D006DC01280CD0032801D1FFF7BBFF10BD0A28FCD00B28FAD105480078107010BDFFF712FF10BD1146184600F0BD
:40280000DDF910BD020D0020F8B5244DAC6A0127A007234E002816DA307806280ED1286A384328621F480069F903084381B21D481030FEF76BFC042000F07EF91748022196
:402840002830FEF761FCE00718D000F0EDFF01280FD1002001F03AF8062000F06DF91049FF20C91E48707078002802D1686B384368630A4801212830FEF746FCE0050BD560
:402880003078042802D1052000F056F90348FF2101312830FEF738FCF8BD000040F02E40FF0C002000002E4010B503212348FEF72DFC0120FEF7C6FC20483038406A204CD3
:4028C00080076178800F890001431C480C38FEF71DFC6078002808D0401E022181401820FEF798FEC000083800E0B82081B21548FEF70CFC1348032109021438FEF706FC77
:4029000010481149B830FEF701FC612189010F48FEF7FCFB0D480321001FFEF7F7FB0C490C48FEF7F3FB0B480B496038FEF7EEFB084801218838FEF7E9FB10BD70F02E40EE
:40294000020D0020D8102E4090890000041E2E40FF0F000058122E40209000000449012009684907490F022900D000207047000000010B4000B5FFF7F1FF002805D0094805
:402980000168C908C900016000BD0748016A490849000162054801690122D2039143016100BD000000010B4040F02E4000002E400848017806290BD140780749002803D16D
:4029C000486B400840004863C86A01221043C86270470000FF0C002040F02E400121002807D005494A8842804A784270097801700021084670470000020D00200148007820
:402A000070470000FF0C002002484078022800D001207047FC0C002000B50300FFF74EF8080D050D0B070507090D012000BD032000BD042000BD022000BDFF2000BD00000F
:402A4000074A9168D26889B2064B92B2994204D105498A4201D1012100E000210170704780002E4033D000003FE300000149487070470000FF0C0020F8B504460120002CE0
:402A800052D0217808294FD2617804294CD26088102166283DD800283BD065882348662D45801BD801270026BF020A2D33D90A212846FEF7C5FCC0B2072800D907200A21E6
:402AC00041438D4204D9691ACEB21F2E00D31F264101314339431648FEF716FB134D60786870217829701349496A8A0781001148920F11432430FEF709FB687800280CD0C6
:402B0000401E022181401820FEF784FDC000083804E06180C1E72946DCE7B82081B204482030FEF7F3FA0020F8BD0000020D0020B8102E4040F02E4010B50446FEF78EFB18
:402B4000072C01D9FF2C01D102480470FEF782FB10BD0000FF0C00200149487070470000FC0C002010B5064A012805D01921C9021046FEF7CBFA10BD1D21C902F8E7000065
:402B800090002E4010B50A4A141D012808D009491046FEF7BBFA08492046FEF7B7FA10BD04491046891CFEF7B1FA0349491DF3E788002E4031D000003AE3000070B50C4651
:402BC0000546FEF763FBC0B202280E49287804D0FF2810D04C280CD810E0FF2809D10A4AD0680004800F032801D0087807E09069000A553803E00878207070BD4F38207037
:402C0000087070BDFE0C002000002E40F0B50122002834D0002932D00424420600D00524792342065B06D21800D0641C034600221EE00C2516466E43124D00277519AF7274
:402C4000104F002ABB51696007D0661EB24209D10D4E86197606760E05E05E06760E8027BE1B00E080269B198919521C2E81D2B2A242DED303480549006B0022886110460F
:402C8000F0BD0000FC13002079020000080D002018B50020694608700A48006900280ED0132149014018047E684604704F21C900054800F05BF8A04201D0012018BD0020A7
:402CC00018BD0000080D002080110020074900200C2242435218927A012A05D0401CC0B20628F5D30020704701207047FC130020F8B50F000446164609D01A4D1A49686809
:402D0000A04202D94018A04201D38E4201D90120F8BD39462046FEF7AFFC002820D0324639462046FEF7B7FC0E49F0B2012620318E7600210C220B4653430A4A9A18138959
:402D40005568EF18A74207D9641B1B1B9672834206DAC01A1469C0B2491CC9B20629E9D30020F8BDFC13002079020000034610B50020024604E09C5C2018521CC0B292B2A3
:402D80008A42F8D310BD000070B500F05FF8084C064A216907480D46FEF77DFC05492846FFF734FFFFF774FF207070BD79020000080D002080110020002070470020054A53
:402DC000002902D0012902D002E0906000E0D06000207047080D002070B5084C154608460549E26889182A46FEF755FCE0684019E06028B270BD000080110020080D00200F
:402E00003EB50A226946FFF7E7FF044606480A2200686946FEF730FC002802D00020C0433EBD20463EBD00000C0D0020002802D0044A914201D2FF20704703494A61086116
:402E40000020704779020000080D0020024800218160C16070470000080D002070B5074C15460548A26880182A46FFF741FFA0684019A06028B270BD80110020080D0020BC
:402E800010B503490A220968FFF7E8FF10BD00000C0D002010B50F4A002313600E4A13600E4B18600E4801600E49012008600E490860000290600E490C4808600D4914303C
:402EC0000860FF381538506000F0BCF800F0CAF9002010BD3C0D0020240D0020500D0020540D0020400D0020300D002044150020340D0020480D0020014610B500200029CC
:402F000010D0094B1A689C685118A14209D25868196080188A0704D08A07920F891A091D196010BD002010BD240D0020F8B50024164E671E321F3D463168136806E014223D
:402F4000624310328A58521C1BD0641C9C42F6D36A1C14D02C461422544322460C3288500C214843FFF7C8FF3168002808510AD031680020103408517068401C70602846B0
:402F8000F8BD2546E4E73846F8BD0000340D0020F3B50026F64381B000281BDB1E490968884217D80299002914D01B4F142204463F1D54432546396810354859401C09D0FF
:402FC000FEF74CF938682F1F4159C359994203DBFEF740F93046FEBD214608310091465801590C20704308180C220299FEF753FB0948761C001D0068C159B14200D100263B
:403000000549009A091D865008684159491C4151FEF720F90020FEBD300D0020002803DB07490968884202D90020C043704704491422091D0968504310300858704700001B
:40304000300D0020F0B500200D4A451E0346171F50600FE014260146714314680E1DA3510C461668083433511668083435511468401C635039688842ECD30020F0BD000034
:40308000340D0020F3B50026F64381B0002841DB2349096888423DD8029900293AD0204F142204463F1D54432546396810354859401C2FD0FEF7D2F83868415900292BD05D
:4030C000211D009146580C21005971430F46C1190C220298FEF7DFFA11480021001D0068761C00590C34C0190160416081600C48001D00680159B14200D100260849009A76
:40310000091D865008684159491E4151FEF7A2F80020FEBD3046FEBDFEF79CF8FAE70000300D0020FEB504460D4600201E49089E0860471E009001900290002C11D0486874
:4031400085420ED2002A0CD0002E0AD0642E08D808460C3001681C2068430C18207A002801D03846FEBD0120226020721846FFF7DDFE6060401C13D06681A6810A48276113
:403180000C3067610179A94200D205710021684601810A462846029B00F040F82846FEBD00202072DDE700003C0D002038B50124009400F039F838BDFEB50027164EFF4346
:4031C0003D4600240EE01C20316860430818017A002906D04068FFF721FF002801D0254603E0641C3079A042EDDA681C12D01C2130684D434419FEF731F869466068FFF79E
:4032000041FF0546FEF726F8002DD9D1216868468847D5E7FEBD0000480D002038B50024009400F001F838BD1FB500220C49541E0A60002811DB496888420ED808491C2279
:403240000C31096850430818406801A9FFF7A0FE401C02D0002004B010BD2046FBE700003C0D0020F0B50021114A4D1E174611710C3F0B46BD6016E008461C2460431668BE
:40328000041D355114680646235014680836A3551468361DA353044616680A34335318301468491C255078688142E5D30020F0BD480D002038B500210091002811DB0F49E3
:4032C000097888420DDA0D4D04010C3529680859002807D0201D0818694600F06FF9002801D0002038BDFDF7B9FF28680F34015D491E0155FDF7AEFF009838BD580D00204C
:40330000F7B582B0002502986E1E06602E48D21C024017462D4A2C4610460C380178106805E02301C358002B0FD0641CE4B28C42F7D3711C28D03401211D4018019103992D
:4033400000F02AF900281FD101E02646F1E71F48016820460C300F521C480399026820460E30115419480399026820460F3011540398784300F0A0F8144900280968085119
:4033800002D00024009011E001251AE00F48016801980818009900F02CF9002801D0012502E00098C0190090641CE4B203988442ECD3002D05D10298066004480179491CE9
:4033C0000171284605B0F0BDFCFF0000640D0020F8B50D4600216A468C461180002839DB23490978884235DA214B04010C3319680A59002A2ED020460C300B5A801C0E5C00
:40340000184670438018954224D3854222D2002006E007465F43BF18AF4206D0401CC0B2B042F6D36046002814D0114E271DC8190C366A46294600F006F900280AD1684607
:403440000088012808D030682946C01900F0D1F8002803D00120F8BD0020F8BDFDF7FEFE30680F34015D491C0155FDF7F3FEF3E7580D0020F8B50F46002400F031F80028F5
:4034800017D10C4900220B460C334A600EE021011D680E466A501D680C36AA53B61C1D680F31AA551D68641C6A54E4B2BC42EED31A71F8BD580D002000280BD0C01C074A69
:4034C00081085068890053884118994203D89368516018187047002070470000580D0020F8B5064600200F4D009029700C0121466846FEF781FB00280CD129460C310098AF
:403500000860301B001F84B221466846FEF774FB002801D0FF20F8BD6C800098A8600020F8BD0000580D0020F8B5002827DB19490978884223DA174C05010C342168485903
:4035400000281CD028460C30085A009028460E300E5C401C0E5420682F1DC01900F064F800280CD12068002445590EE0094829460C300068C01900F03CF8002801D0012016
:40358000F8BD00982D18641CE4B2B442EED30020F8BD0000580D002030B50D4604000BD0A800FFF789FF6060002805D000202570C0436080002030BD012030BD70B50D462D
:4035C000040005D0002D03D00220205E002801DA012070BDFDF742FE0221615E60688900405828606088401E6080FDF733FE002070BD70B50D46040007D0002D05D002216A
:403600002078615E401E814201DB012070BDFDF725FE6088401C00B26080616880000D50FDF718FE002070BD10B5040009D0227800216068FEF738F80020C0436080002091
:4036400010BD012010BDF0B500231D46002802D00224045F0AE00120F0BD46689F00F6598E4201D1012503E05B1CDBB29C42F4DA15700020F0BD0000014800787047000068
:403680006C0D00207CB505460024FEF749F8A8796946087000A8062229460130FDF7FBFF0021684605F0DAF80C2806D0072806D01F2806D0122806D006E0022404E004240B
:4036C00002E0272400E0012420467CBD01480121417270478016002010B502280BD0032802D0042809D102E000F07EF905E000F029FAFF2801D100F039FAFFF77FF9FFF7E0
:403700008BF910BD10B500F061FAFFF777F9FFF783F910BD70B504460025FEF701F8002C06D0A079012803D8214602F0C7FE00E00125284670BD01460120002902D0502050
:40374000088000207047000001460120002905D0034854220078504308800020704700006E0D002010B502460D49FE204870032410460DF079FE002810D10DF01DFE00284B
:403780000CD105F047FE002808D100F015FC002804D105F009FB002800D10024204610BD6C0D002002480021018280210180704700102E4070B50025044600280ED0A07919
:4037C00001280BD8FDF7ACFFA0790028204602D003F054FA03E003F029FA00E00125284670BD0000014610B50120002904D006220248FDF750FF002010BD0000780D002059
:4038000001460120002903D00878024908700020704700006E0D002010B5FFF7EFF8012801D1FFF7F1F810BD0148007A704700008016002038B504460120002C20D06178A9
:4038400001291DD800290BD0FF25E535FDF768FF0C4828180088C0B22070072803D00EE0FF25CD35F2E70020694608706846FFF7E7F869460878012801D1082020700020B3
:4038800038BD000000102E40014A0021926810476C0D002008B500226B461A7026280CD0094A342852680BD0352805D1900703D50021352005F08AFE08BD19462620F9E7D8
:4038C000D007F9D03420F5E76C0D0020014908727047000080160020F8B504460120002C26D06178012902D92278092A20D8002905D0FF25E5352078092803D004E0FF2571
:40390000CD35F8E708202070FDF70AFF2078114F114E08280DD00020FFF734F970780128207810D00D4969180880FE2070700020F8BD0120FFF726F90720B881054920315A
:4039400088800120F2E7B8810248217820308180EBE70000C0112E406C0D002000102E4070B50E46050001D0002400E00C4C002C11D0E28A500609D5D107C90F022003F093
:403980001BFAE08A40218843E08204E0D107C90F012003F011FA3146284602F0EBFE70BDE0150020F8B50546002004460D4E009013E022466946284601F052F90098002884
:4039C00001D00DF033FDA878214602F0B5FCA878214602F0A3FC641CE4B2308AA042E8D8F8BD0000AC160020F8B54E4CFFF706F8012847D14C480078002843D002F042FE89
:403A000000283FD004F0B0FB00283BD0474E7078C00703D000F040FD012833D0307E00287DD17078002500285BD0000706D540488089070B00F02EF9384370D13B484178F5
:403A4000684604F0D9F9217A3A4CA2788918C9B2814262D802F016FE002860D0344860300789324E203602F057FC6846008802F081FC02F01DFD30490988884203D10120EF
:403A8000FFF75AF84BE02D49012008702748807B00281DD0002F1BD04036F07E002817D123486030008821494000C031498981420AD26078002807D103F0ACF92049088AFD
:403AC00003221202104308822078002800D0257002F086FC0120FEF7C9FF00F049FC174C15E002F0CFFD002819D0102402F0E0FC214602F0C9FB02F03DFC104C0120207086
:403B000002F06EFC0020FEF7B1FF00F031FC20780128B4D1FEF72EFF25700020F8BDFF20F8BD0000B4150020FC0C0020C0150020A0102E40920D0020A40D00207E0D002042
:403B4000E0112E4010B50848FF244078002809D102F098FD012805D1FEF71AFE0720FEF7EBFF0024204610BDC015002038B5FEF745FF012801D0002038BD02F083FD002840
:403B80000AD0114C6078C00703D000F085FC012802D0207E002801D0FF2038BD617800290FD0684604F028F9022806D96846008802F0E0FB012002F01DFC0320FEF7BCFF96
:403BC000D9E70020F7E70000C015002038B51E4CFEF714FF042813D0052811D0062812D003282AD007280AD100206946087002460120FEF7EBFDFEF701FF0128FBD138BDEB
:403C000000F0D6FB38BD02F00DFC00F0D1FB02F089FC8007800F0228F4D10C4841880029F0D05B21095D0029ECD101210170A07D0140022003F0C0F838BD02F0F7FB012015
:403C4000FEF77AFF38BD0000E0150020920D0020F8B50646002403F01DF90546304603F033F903460A480021068A0DE001228A401046174628401F40002803D0002F01D16B
:403C8000224394B2491CC9B28E42EFD82046F8BDAC16002070B500252C460A4E03E0002C01D0002000E030460079002803D02046FFF7CEFF0543641C2406240EEFD028468D
:403CC00070BD0000E01500201CB50020694648706846FFF7AFFD01AA69460A20FEF776FD6946042008561CBD70B50D4601F09EFB04000BD02079002808D0FDF711FDE1780F
:403D0000A0782A4602F0BCFD002070BD022070BD0148007970470000B41500204030C07E002800D00120704700B500F001F800BD902148430749084A40186030417F491C8E
:403D4000C9B24177D289914201D300214177C8B270470000C0150020AC16002013B501F065FB04000BD001F01CFF002807D0214601AA0A310620FEF729FD00201CBD022081
:403D80001CBD000010B50C4601F050FB00280AD001F007FF002806D0224604490A20FEF715FD002010BD022010BD0000A1150020F3B581B0074601460026029803F062F8CE
:403DC0000446002F01D0002500E0154D002D21D0284601F061FB032C04D13946029803F0ADF806463846029902F098FA032C06D0002C10D00121384601F054FC03E031464F
:403E0000384603F0ABFA284602F076F90221284602F08CF9FEBD3846029902F07FFAFEBDE015002010B5044600F04CFA002804D103F076FF002801D00C2010BD2078611CD5
:403E400002F024FEFF2801D01F2010BD02F06AFEFF280AD02178621C02F0E8F9044821780068026B601C904710BD072010BD0000B80D002010B503F053FF002801D00C2003
:403E800010BD02F0E5FD03480068C06A8047002010BD0000B80D002070B50D46044610210DF004FA1021601806460DF0FFF9334610221946204603F061FF102130460DF0AC
:403EC000F5F902202870204604F0A4FE70BD0000FEB504464078217802028006870FE0781143A5780E050002360D0543304601F09DFAEAB23B4621460096019000F0FAF98E
:403F00000006000E14D10B48224600680199436928469847C0B2FF280AD10198EAB24030817EFF23491C81762146019800F0E1F8FEBD0000D40D00200020704710B50446D1
:403F400003F0EEFE002801D00C2010BD2078611C02F09CFDFF2808D002F0D0FC044821780068426B601C904710BD1F2010BD0000B80D002010B500F06BF904F015FF0020C7
:403F800010BD10B5044600786178E2780843A17811430843217908436179084305D003F0B1FE002803D00C2010BD122010BD204602F064FE002010BD10B5FDF767F902F051
:403FC0008BFF044804F010F802F0A2FC012000F003F810BD88150020F1B586B003A8009005A8019028489F22017B114001736846FDF7B0FB002845D169460989C90705D091
:40400000224806990068C2686846904769460989890706D5002835D11D480068816A0698884700282ED11B4E0025757075737571F575357675767575B570F570B5713746E2
:40404000F5730120D03738731F20F880FF2130467972A0300176457600F028FB00242046069901F049FD002803D1641C2406240EF5D0FD720749BD72B573C0310D704D707A
:404080004D600D7207B0F0BD74150020D40D0020B80D0020C015002070B505460E46084602F0F8FE0446304602F00EFF0121A9400A46224001400A4301D0012070BD0020A9
:4040C00070BD10B50446084602F0FEFE0121A140014201D0012010BD002010BD10B5FEF78DFC032804D102F0A1F90120FEF724FD10BDFEB51C4616460F46054601F0FCFF86
:40410000A878FFF711FE02460190334639460094284600F00DF8002808D1A8780199FFF71FFCFF2C02D138460DF080F9FEBD0000FFB585B005460E980C46FF2810D02B4972
:40414000C00009680A5840180179C0795278814201D9012601E09006860F6846038108E06078A1788006860FE0780002014368460181284601F046FD070007D021462846BE
:40418000079A00F001FD384609B0F0BD304600F0AFFD04AE0346039002AA29460096204600F019FC3C20405D002818D0284601F029FD012813D0684600890096C0B2019066
:4041C000A878231DFF22079902F088FA68460089039BC2B2A878079902F0CCFDD3E7684600890021C0B20091E9E70000D00D0020F8B5002600253046FFF72AFD07001DD005
:4042000090201149704340186030447F12E0601CFDF716F9CCB23846E040C007C00F07D02146304602F070F821463046FFF7C0FD6D1CEDB20548018AA942E8D8761C3606DC
:40424000360ED7D0F8BD0000C0150020AC16002010B502F05DFB0020FFF7BEFE0DF07CF9002010BDF8B5002400F010F90123012800D10124104F00203E46203604250822CE
:4042800003E0002801D0002100E031460979002907D001290BD002290BD0114681402143CCB2401C0006000EEBD07C70F8BD1C43F7E72C43F5E70000C015002010B5FFF71F
:4042C000D1FF10BD10B5044604F0C0FE002802D1601C00F001F810BD1CB500240094062269460194FDF7C8F9002800D1122420461CBD0000F8B5044600201E4617460D46F0
:40430000002C12D0002D10D0022E0ED0032E0CD0002F0AD02179092907D0002905D013494A7F5A21095D8A4207D82089002104F0A6FB28460DF07AF8FF20E18F012905D121
:40434000002F03D0012E06D0002E04D0374301D10121E187F8BD0021E187069A2A70069A120A6A70AF70E970F8BD00007415002070B50E4CFCF7C1FE0546FEF73FFB0628A1
:4043800002D02078012803D02846FCF7BAFE70BDFCF7C0F92846FCF7B4FEFEF72FFB0628F5D020780028E5D170BD00007E0D002010B5FCF7A2FE0446FEF720FB012809D07E
:4043C000FEF71CFB022805D0FCF7A4F92046FCF798FEEEE72046FCF794FE10BD10B50B4681791943817103D08078114602F090FC10BD10B582798A43827102D1807802F09E
:404400009BFC10BD30B50C4C0220A28A0B4B9978002901D0022906D11D785B78EB18282B01D9032002E0032900D101205105490DC0020143A18230BDC0112E40880D0020B9
:4044400000B500F029F8002807D0012805D0032801D0042801D0002000BD012000BD014600B50020C90701D000F010F800BD014600B50020C90701D000F008F800BD0000E9
:404480000148006870470000800D002001480088000A704720102E400448008B410501D5042070474007800F7047000000102E400148406870470000800D00207CB504460E
:4044C000002568460570200610D5FFF7E5FF01280CD101A801F0BAFF6846007900F058FB012001F071FE0220FFF7E8FE600712D50C48017901290ED10571684601F0A6FF6E
:404500006846007800F078FB0220FFF7D7FE00212620FFF7BFF9044800680169204688477CBD00008C0D0020B80D002010B501460A4A007800241070FFF7A8FF0128084636
:4045400003D002F007FB204610BD00F0E7F80400F9D1034801210170F5E70000880D00208016002070B50446FFF790FF002801D00C2070BDA27B01211F48002A827801D09E
:404580000A4301E05208520082706279012A14D0C17849084900C170184D2868016820468847207901280CD06188208803F066F92080207904280FD015E0C2780A43C2703B
:4045C000EAE72868C168E01D8847E01D02F042FB0B48008D208006E02868C168E01D8847E01D02F037FB074920798870204602F0BFFA002070BD0000C0150020B80D002014
:4046000074150020880D002008B50178FFF73EFF814201D10C2008BD002914D0072069460870FFF70DFF012807D10121684600F0E5F8012801D0092008BDFFF7E3FE02F081
:40464000CBFA012011E0FFF7FBFE012806D1684601F0FCFE6846007800F0CEFA02F0B2FAFFF714FF0028FBD10220FFF727FE002008BD000010B501460A4A00780024507084
:40468000FFF704FF0128084603D002F021FB204610BD00F065F80400F9D1034801214170F5E70000880D00208016002038B568460CF052FE002801D01F2038BD0121009828
:4046C000C90201804180002505714571857107214173857302F04CFA009C202200212046FCF7E2FF25702A460021601CFCF7DCFF204602F02FFA204602F0EAFA00980CF060
:4047000095FE062200210448FCF7CEFF02480C388560002038BD00008C0D0020F8B5044600250D4800950078012806D068460CF013FE002803D007250CE00C250AE0074E95
:40474000009830602278611C401CFCF7A4FF3168207808702846F8BD80160020800D0020F8B5044600250D4800954078012806D068460CF0F1FD002803D007250CE00C2540
:404780000AE0074E009870602278611C401CFCF782FF7168207808702846F8BD80160020800D00200346084800B5834209D8184600F03CFE002804D00089984201D101202E
:4047C00000BD002000BD0000FF0E0000074A9179491C8906890E917138220A4092014907090E11430843024908407047C0150020FF0E0000C006C00E70470000F8B507465C
:404800000E4600240D4803E0002C01D0002500E005462979002905D0641C2406240EF3D00020F8BD0021204601F066F92E712046FFF7CCFF28813C700120F8BDE01500208A
:4048400010B503F0CFFA0222002100F003F802F00BF810BD10B5094B40074907000F090F185A595A40185043C0086421FCF7E8FD002800D1012080B210BD0000A0360100C9
:40488000F7B53D20405C88B015460C46002802D02878042802D200200BB0F0BD6946087200262046FFF73AFA012800D00126204603A938300191009023460327A17E343398
:4048C0003246206A03F0AAFB02A8089900900B46019120463A4603A9243003F02FFA02466846007A2870204601F0F2F81046D3E7FFB587B00C4605461078694608723D206F
:40490000005D1746002826D000262046FFF706FA012800D00126204603A93830019100902346A17E34333246206A03F077FB02A80090291D019120462B1D03A924300A9AA7
:4049400003F0FCF902006846007A388002D1204601F0BEF810460BB0F0BDF0B505463C20405C89B016460C4600280CD0307869460873002806D000272046FFF7CFF90128B8
:4049800003D003E01F2009B0F0BD012703200890204604A93830019100902346E17E34333A46E06903F03AFB6846007B03A928180290009120462B46019504A92430089AB4
:4049C00003F0F0F902466846007B3070204601F089F81046D7E7FFB505463C20405C89B016460C46002810D0084601F00BF901280BD0308869468883002809D000272046B1
:404A0000FFF78CF9012805D005E000200DB0F0BD0220FBE70127204603A93830019100902346E17E34333A46E06903F0F7FA291D2B1D07A8129A6D4607C5204603A924301C
:404A40000C9A03F0AFF902466846808B3080204601F048F81046D9E770B50C460646FFF75DF9012824D06079227900020243E079A37900020343607A921F0102207A084380
:404A8000E17A0D02A17A154C294335464035A24207D20A38221F904203D2FF20F43083420DD91E202873304600F0C8FB1E2070BD00222421304602F027FE242070BDB078E5
:404AC00001F0BEFD012801D0002070BD28202873304600F0B3FB282070BD00007B0C0000002801D0002000E003484030C07F012800D0002070470000E01500200146002091
:404B000049070ED50021084B03E0002901D0002200E01A461279022A04D0491C0906090EF3D0704701207047E01500200146002049070ED50021084B03E0002901D0002205
:404B400000E01A461279022A04D0491C0906090EF3D0704701207047E015002010B5044680346068002803D00CF074FC0020606010BD403041707047403081707047403079
:404B8000017070470171704792001018C166704770B53C2501F030FA040004D020460021433001F0EDFCFF222946204600F0E8FB002C02D0A07801F0A1F970BD10B500283B
:404BC00001D0002000E00348002802D0008903F09DFF10BDE015002010B5002801D0002000E00448002804D00179072901D100F047F810BDE015002010B501F0FDF900283E
:404C000002D0807801F07AF910BD00207047000070B50546008A00281ED01049F122097B1140C90618D5294640314A8A098A521C4A4392B2D10800D10121540801E0621A8A
:404C400094B2A042FBD9FEF717FD012804D1298AA878224601F0CAFD70BD00007415002010B50023054C0B60248A944204D992001018C26E0A60C36610BD0000AC16002037
:404C800038B5044600200090A079002814D14020015D052901D00E290ED168460CF06CFB002809D12046009902F00CFD03481021428B2046FFF792FB38BD00007415002037
:404CC00010B50B4604460146184602F06BF9002802D020460CF0B4FB10BD13B5044601AA11460620FDF772FD6846818861811CBD002800D10220704770470000F8B50446F2
:404D00002346401D543300909A1EA078911E01F0B9FB25464035A88A298A8000FCF790FB401E81B2688A884203D96982A07802F07DF8698A8C20015120460021433001F040
:404D40001FFC27480088E88103F04CF8E989891C8AB26179FFF77EFD01F086FD03F042F82A8A6179FFF776FD074601F071FD688A002806D01B49088A0322120210430882A3
:404D800002E0002002F046F81648803801886E8A002E0CD0304648431349FCF73BFC0004000C01D0401C80B21049488002E00F4800214180288A704381B2A07801F096FFB8
:404DC000FF2228374932B9B21346204602F05AFDE98AA07801F00AFFA07801F0BFFAF8BD80102E40E0112E4071020000920D00207FB504468034616805460E4618310822AD
:404E00006846FCF748FC31462031082202A8FCF742FC102168460CF049FA6068102108300CF044FA60682B46083024331022694602F0A4FF7FBD10B504460821FFF7D9FABC
:404E400010212046FFF7D5FA207905281FD006281DD008281AD12189002003F0CFFD072020712046FEF75AFF014620464030012913D00E21017000210176204601F050F8F5
:404E80002046FFF76BFE2046FFF7C2FE10BD20890122002103F096FDE1E70521EAE70000FFB581B01F4604460821FFF7A2FA10212046FFF79EFA2079082803D0092804D0FD
:404EC000042203E00422012501E009220025204600F05EFE264600204036307022712046FFF73CFE0398002D02D0012808D00BE001280AD120890022029903F063FD04E088
:404F00002189029803F07AFD012700203076012F04D0204601F004F805B0F0BD02983073204602F01DFC054605480121428B2046FFF754FA002DEFD109202071ECE70000C3
:404F40007415002070B50C460546FEF7E7FE012809D108212846FFF74CFA0023012221462846FFF79DFF70BD10B5044600F010FE2046FFF7F3FD00214034217010BD70B5CB
:404F800005461A24FEF7CAFE012809D108212846FFF72FFA0023012221462846FFF780FF70BD0000F8B50446002000900E4668460CF0E2F9002801D00D20F8BD84200059DD
:404FC00008212030009D00F02CFA20460421383000F027FA002E02D1204600F03BFE2946204602F0FAFA0E480821428B2046FFF7F5F9204601F005F825464035002808D06C
:40500000204600F023F8002801D0092028700020F8BD08202870204601F06EF8F7E7000074150020014610B540310A460978082906D0092907D00A2901D100F091F810BDC3
:405040000B20107010BD00F001F810BD70B50446007925464035052805D0062803D008280FD00C2070BD03220621204602F04CFB0D480821428B2046FFF7B0F911202870CB
:4050800010E006202873204602F06AFB0646AA8A0A20424301212046FFF7A0F9002E01D109202071002070BD7415002038B504460020009068460CF05FF9002801D00D207D
:4050C00038BD2046009D00F0C3F908202071204600F0C0FD2946204602F0B6FA00213D2001550F2040210855204601F005F8002038BD00B5024600F04BFD10214032117046
:4051000000BD10B50446FEF709FE012809D04020005D112805D100231A4606212046FFF7BFFE10BD10B5FFF786FE10BD38B504460021684600910CF01FF900280CD1204627
:40514000009902F002FB05480821428B2046FFF745F90D204034207038BD00007415002038B504460021684600910CF005F9002801D00D2038BD2046009902F0DBFA05483C
:405180000821428B2046FFF729F90C2040342070002038BD7415002000787047F8B5002569460D70002801D0002400E01F4C002C18D0204600F0F5FC002813D020790328CE
:4051C0000BD005280CD026464036B18AA07801F097FDB078012806D01DE0042020711DE006202071F8BD0021204601F0F8FE274680373868002802D00CF02CF93D600020C5
:40520000B0702079072802D12046FFF701FD0221204600F08BFF20790428E3D1207A694608703420FEF736FBF8BD0000E015002010B54C22115400F052F810BD10B504462A
:40524000FF21FFF7D6F809202071A07801F07EFD10BD000038B5FF216A461180002801D0002400E00B4C002C12D011460620FDF7ADFA684601882046FFF72FFD204600F062
:40528000C7FC002804D104480068C1692046884738BD0000E0150020D40D002010B504468079002809D022214C200155FF212046FFF79FF8204600F012F810BD10B5037981
:4052C00002464032002B03D01173092B02D003E0002100E02221117300F001F810BDFEB504460089002700902781207926464036002817D0012815D002280AD112E002AAEB
:4053000001A9204601F03CFE002807D101980CF097F8204601F05CFE0028F0D02046FEF741FBB776254680352868002802D00CF091F82F606868002802D00CF08BF86F60DB
:40534000317B002919D0009800F064F8A078002101F026F82046FFF773FAA07801F05AF9A07800F0CBFDFF212046FFF742F80B20FEF7A4FF00F0A8FCFEBD1F213173E2E7D9
:40538000F8B517460E46054602F028FD04003CD020460C3001F0E4F82046062200211830FCF782F92046062200211230FCF77CF91648224600683946436A284698470746FC
:4053C00026702846FEF7AAFC012148406070002D10D02889608028464030C1782171002E0FD169796171018AE180418A2181808A608106E00648008BC005C00F2071002043
:4054000060803946204603F07CFAF8BDB80D002000102E400A4610B50146002003F08EFB10BD10B50BF01EFD10BD000000B50146FFF7E0F9002801D0002000E00348002882
:4054400002D002898A4200D0002000BDE015002038B5044680346068002806D168460BF09BFF002801D100986060606838BD000010B5014600F0C6FB0128887802D0FEF790
:4054800057FC10BD90214843024940186030007F10BD0000C015002070B5054604464035A87F012811D1A1789020084A484380186030067F3046FEF7EFFD002805D10220F1
:4054C000A877A078314601F05FF970BDC015002010B50C4CA07A002813D0FEF789FE0A48027F417F408B00F0F7FB012809D10020A07200F0C1FF05498989090B01D000F07B
:405500003BFA10BD90160020C0150020A0102E4070477047490510B5490F0B00FCF7CEFA060704080C0C0F073E21FFF781FE10BD0821FFF7C3FE10BDFFF7D1FE10BDFFF7D4
:40554000ADFE10BDF8B507460025002D01D0002600E0204E00F03AFF3046403044890021418100F057FF304600F01BFB01282BD1A00702D52846FFF711FEE00602D5284660
:40558000FFF768FEA00601D5FEF732FE600601D500F054FB200602D5284600F01DF8600702D5284600F046FA380402D52846FFF713FB780402D52846FFF700FBE00703D036
:4055C00021463046FFF7A6FF6D1C2D062D0EBCD0F8BD0000E0150020F8B5002801D0002400E0284C002C4BD025464035A878012846D1FF278820493700593E46002805D019
:405600002149097B890601D5878AC68A2046FEF785FB012834D002F0E5FB2A8A6179FFF719F9009001F014F900983346283081B23A46204602F026F9E98AA07801F0D6FAD9
:4056400012480188688A124E002810D048431149FBF7E0FF0004000C01D0401C80B27080A07DC107C90F002001F0A6FB01E000207080288A698A484381B2A07801F036FBDB
:40568000F8BD0000E01500207415002060112E40920D0020710200000149096809680847D40D002070B50D460026194A0146002801D0002401E014462034002C26D020466E
:4056C00000F0A0FA01280AD19020484380186030007FFEF7E1FC002801D101F0C1FF0D48006881692046884700280CD020464030817EA94202D3491B817600E08676208968
:40570000294603F0BCF9204600F0F6FC70BD0000C0150020D40D002070B503460088FFF785FE040013D000F03CFA00280FD02079092819D02546997840352973204602F0CC
:405740000FF80646A878012803D0AA8A02E0022070BDEA880A20424301212046FEF73EFE002E01D109202071002070BD0EB5002217216B460292198100905A810120029B4F
:4057800000990BF007FF0EBDF8B518480024807A002822D1164E0025B089000B22E0204600F008FF1249A039401807882A462146384600F091FA012810D00E4801224783DB
:4057C00005770A4944778A72002D01D0002000E02030002801D000F08FFCF8BDB089000B641CE4B20028DAD1F8BD000090160020A0102E40C015002010B50088FFF716FE9A
:40580000002809D0014640310C460978082905D00B2903D00C2010BD022010BDFFF716FC002801D009202070002010BD70B503460088FFF7FBFD040008D025464035287800
:40584000082805D00B2803D00C2070BD022070BD8420005910220830991CFBF71CFF2046FFF7C6FA2878082804D02046FFF778FC002801D00A202870204600F03DFC002052
:4058800070BD000010B50C46002121700088FFF7CDFD03000BD000F084F9002807D00948F121007B0840C00603D4112010BD022010BD022020701A8A1889002103F05AF952
:4058C000002010BD74150020F8B50F46002100910088FFF7ABFD040012D000F062F900280ED0E079410641D4617E02264A07002A08DB8907402500291ADA2843E07135E004
:405900000220F8BD02F06AFA0021017021894180A1898180217E4170E189C1803E7005460178134802F0F4FD284603F0C7F81DE0204600F06DF9012806D068460BF01CFDCD
:40594000002803D00720F8BD2A20F8BDE07900992843E071204601F02DFF607E0421304360760448428B2046FEF738FD0020F8BD1D040000741500203EB500220F236C4693
:405980000292238100910190628169460EC900200BF000FE3EBD0000F8B50F46054600F02BFB04002AD000F007F900282AD003202071254600264035EE76E6702046FFF7CD
:4059C0009DF901F0FFF80920FEF778FCA07800F00FFE0121204600F0A9FB2E706E70AE703A4600212046FFF7CBFC0F49887B401C8873A078FFF750FE022012E0284601F087
:405A0000A5F9F8BD002001F0A1F90848008B4007800F012802D1064801F01CF901F0DCF80120FEF74BFCF8BDC015002000102E40C00D002010B5002801D0002000E0094821
:405A400000280DD0014640310A464978022901D100215170807DC107C90F002001F0ACF910BD0000E015002070B503460D460088FFF7DCFC04000BD000F093F8002807D0D4
:405A80001248F121007B0840C00603D4112070BD022070BD20464030418A008A491C41430804C10C5888884201D2122070BD20822079072802D12046FFF7AAF802202870AF
:405AC0002089002103F07EF8002070BD74150020016A491C016204D1817E491C4906490E81767047C169491CC16104D1C17E491C4906490EC1767047F0B5074687B003A82B
:405B0000009005A800260D460190002F01D0002400E01B4C002C05D06846FBF71BFE002803D00BE0022007B0F0BD68460089C00704D1902200212046FBF7B6FD1148294614
:405B40000068826820469047050016D1A77066762746267140373E70204600F019F8204601F032FA084820820848BE77007BF121084000D001202075E682E8B2D3E7000016
:405B8000E0150020D40D0020B80B000074150020002101628176C161C17620300177417770470079002805D0012803D0022801D001207047002070470F49008908820E497A
:405BC000603108880D4A801F904210D28888121F0A3890420BD20889FF21F431884206D8074800890006C00E401F0C2801D300207047012070470000A0102E407B0C0000C3
:405C0000E0112E404030807F002800D00120704740300078002807D0012805D0052803D00E2801D0012070470020704710B5807801F04AF9002800D0012010BD10B500F09F
:405C40001BFC03498989090B01D0FFF795FE10BDA0102E4070B5054604464035A87F002825D1FF206075A0789021154A484380186030417F9023491CC9B24177A078584355
:405C8000104B8018DB896030994201D300214177A0789021484380186030467F0677A1783046FEF7F9F9002802D00120A87770BD0220A877A078314600F066FD70BD00008A
:405CC000C0150020AC1600200020401C0006000EFBD0002070470000F0B516468207920F87B0000A02926A469080002E01D0002400E07F4C002C21D0084600F05BFC07460E
:405D000068468088002810D00298032817D0002000906846808821890491214620310391497F0546012964D067E07248381801882046FEF7D2FF304600F022FBD6E0002038
:405D4000029002A80BF0F8FA002807D03D20005D0128F3D12046FFF7BBFEC7E00298009068468388202B14D31F2300213846009AFCF720FC684680881F3885B2012305AAE2
:405D800000213846FCF716FC6D1E2D042D0CF5D104E000213846009AFCF70CFC5548381801882046FEF799FF304600F0E9FA01AA21460098FEF764FD0028009805D00BF02A
:405DC0002BFB3D204C2108555EE0C677009869460078898801F046FD00280099204602D001F064FA82E001F076FB00980BF014FB7CE0042820D3281F80B23F49097B89069A
:405E000005D5882109594989814202D314E01B2812D9012305AA00213846FCF7CBFB6D1E2D042D0CF5D10398407F012800D07CE72046FFF74DFE78E768460BF06DFA002817
:405E400002D0002007B0F0BD6846009D83882A1D00213846FCF7AEFB2648381801882046FEF73BFF304600F08BFA2046FFF799FE002805D026464036307E00281DD107E0B0
:405E800028460BF0BFFA31E02046FFF7D7F92DE00298012809D0022807D00398407F0128EED12046FFF714FEEAE7034601AA21462846FEF71DFD002805D028460BF0A2FA7E
:405EC0003D203073E0E70298FEF716FF01460498287004980901000A0843687068468088A870000AE8702846FFF740FC0120A9E7E015002000102E407415002010B5074A16
:405F0000917B002901D0491E91730021FFF7F4FD002801D0002010BD012010BDC0150020F8B5074606464037B87F00282DD0B078902100904843234945186035287F009974
:405F4000FEF7BFF801281ED0287F401CC4B21E48C089A04200D800240020B877FF276F772F77A87702460146009800F07DFD717DFF2903D0304600F0E8FF777501F070FB29
:405F80000025114F19E00320B877F8BD00200090224669463046FEF763FE0099002904D0FF231A463046FEF7A4F8641CF889E4B2A04200D800246D1CEDB2F889A842E5D8E5
:405FC000F8BD0000C0150020AC16002010B502460021084B03E0002901D0002000E018460479944204D0491C0906090EF3D0002010BD0000E015002000B50120FFF7E6FF31
:4060000000BD10B5044601F0E9FE2189018080346168416061682831816002F009FD10BDF7B50646087982B00C46092807D0A078F0770846FFF7E6FD012806D010E030469B
:406040000BF0FEF9022005B0F0BDA1789020294A484380186030007FFEF71EF8012810D0A078FEF73DFD01280BD037780121304601F09EFA25462035062F38D00B2F0FD1F6
:4060800007E06846027C21463046FEF719FE0D20D9E72046FDF742FE012801D1002028772046FFF7E5F9054604AA21463046FEF754FC01205F2108556946097C002001916A
:4060C0000090A07833463A46294600F007FB69460A7CA0780323294600F04CFEA0782946FDF73EFC30460BF0ABF90020ABE70120D5E70000C015002010B502464032937FA3
:406100000021002B03D1927E002A00D00121064A927A002A00D000210279092A00D10121807800F069FE10BD9016002070B50C460546FDF7F3FD00280BD1012C06D92879C2
:40614000092806D02846FFF771FD0446002C02D004E0012402E0A87DC007FAD1A87DC107C90F204600F028FE70BD0000012807D0082804D10448028203480830018070475E
:4061800001488038FAE70000A0102E40014908817047000000102E4010B50446FF20F130012C01D1FF20D530002200F057FE044A108A044980B2A0430880108210BD0000CD
:4061C00000102E40960D0020034B198A034A89B2814311801982704700102E40960D002010B50446012802D0082C07D102E0FF20D53001E0FF20F13000F028FE0348018AD4
:40620000034A89B221431180018210BD00102E40960D0020034B198A034A89B2014311801982704700102E40960D0020F8B505460120A84086B214460F46012231467C2051
:4062400000F00CFE3A463146782000F007FE6078267800020643E078A2780002024360792379000203430C2045430D2080010549281844182680001D44182280001D4018E7
:406280000380F8BD00102E40401880B270470000CB065B0E0343480901021943D00108430121C902084301490881704780142E404278037812021343084A1382C37880781E
:4062C0001B021843908248780B78000203431383C8788978000201439183704700142E40024A1080000C90801181704700142E40044A002180180288491C89B21029FAD325
:406300007047000000102E40024A10820148803081817047A0102E407047000010B5054A1082084600F0BEFD024A0021A03A8018018010BDA0102E4010B50B46044600F089
:4063400005F819462046FFF7DFFF10BD024A10820148803001817047A0102E4010B504490882FF20002220211D3000F077FD10BDA0102E400149088070470000C0102E400B
:40638000000202494D3008807047000000102E400249888A0422904388827047C0112E4010B5084B074C0202A03B0029208202D075321A8010BD0449002008808880763266
:4063C000F7E70000A0102E40201A2E4000B5034908884880FFF7F8FE00BD0000960D002010B50120FDF772FA01495020088010BD00102E4006490E220028888806D0104381
:40640000888003495120C039088070479043F7E7C0102E4000B502484088FFF7FBFE00BD960D002010B5FCF7C3FA10BD014952200880704700102E40884201D8081A03E0D7
:406440000022D243101A401880B2704700210170704700000748808806492039098B884201D8081A03E00022D243101A401880B27047000020112E400148008AC0B27047B9
:40648000A0102E4070B5084C049D2082074804890548603006880E8001891180808818806007400F287070BDA0102E40E0112E400148008970470000C0102E4000280FD0AC
:4064C0000D4A108B0870000A4870908B8870000AC8700948203000880871000A48717047064A10880870000A487090888870000AC8701089F0E7000040102E40C0112E401E
:4065000000B5024A00F004F800BD0000FF7F000000B51346FFF790FF984201D8022800D2002000BD0148008A70470000001A2E40024908820248008970470000A0102E4085
:40654000001A2E40014880887047000020102E40024908820148803000887047A0102E40064B1A8999891B8A0270120A42708170090AC1700371190A4171704760102E40B4
:40658000012904D00549098BC90B017070470349403109898907C90FF7E7000000102E40024908820248008970470000A0102E40201A2E400148408970470000AC1600201C
:4065C000024908820248808970470000A0102E40001A2E40044A10820448028980894843101880B270470000A0102E40AC1600209021074B414300B5C918FF2260314A772A
:406600000A7700228A77114600F02EFA00BD0000C015002090225043074A10B58018FF21603041770177002181770448C18EFF201D3000F00BFC10BDC01500207415002040
:4066400000B5044A1082034880308088022200F003F800BDA0102E4010B50023884201D8081A03E00024E443201A4018044980B2884201D8824200D90123184610BD00001D
:40668000FF7F0000024880880006C00F70470000C0102E4002488089C007C00F70470000201A2E4070B55478157824022543D4788823260294783443567912793602324343
:4066C000002900D09823044908820348A038181805808480028170BDA0102E40FFB581B014460D4607460A9E0B9BFFF773FF002E0AD0009333460021049AFBF7EBFF0548D4
:406700004019C45505B0F0BD0021049AFBF7C8FFF5E700009A0D002070B502460448054D808808242C800B460021FBF7B9FF70BDAC160020A0142E4010B52124024664017B
:40674000044953200880102300212046FBF7A8FF10BD000000102E40417802780902044B0A431A83C1788078090208439883704760142E40034A10828020014301488030C5
:4067800001817047A0102E40054A1082044A6032908B0009000108439115084390837047A0102E4030B500210F4B0A46012809D0032802D005280AD107E0402119810221BC
:4067C0000A2204E004210C2201E004210D221882054C20342088C0B205460D42FAD022800021198230BD000080142E4010B504460748048207480180828003218903082069
:40680000FFF7EEFC200202497530A039088010BDA0102E40201A2E40054A1082044A60321183000202494B30A039088070470000A0102E40054A491E1082044A6032118363
:40684000000202494C30A03908807047A0102E400349884200D908460249088070470000FF0F000060112E400349884200D908460249888070470000FF0F000060112E4031
:406880008823002900D09823084908820748A038191808881070000A507088889070000AD07008891071000A50717047A0102E4010B51446024606480B46C0880021FBF7FF
:4068C000D5FE012C02D103495420088010BD0000AC16002000102E40064A11880170090A417091888170090AC1700349542008807047000080142E4000102E400121814082
:4069000010B589B200227C2000F0A8FA10BD0000FEB5FF210120FFF73FFCFF210820FFF73BFC3020FFF750FC4148802101804148414D00784007400F022873D001286FD168
:4069400000202880002211460320FBF73FFF3B4E3B49308E88823A4F002420373448A0300482B08F38822046FFF754FE641C2406240EF3D0314C32484034218820300183AA
:4069800020462C3800F052F9B16970690191009069464879C021084369464871684600F06DF900F055F8224FE088A03738832089B8831F496089C03188802148F18E2030A7
:4069C00001802048002404823920FFF723FC184E532030801C490720088354203080E020FFF786FCE820FFF783FCF020FFF780FC0020FDF725FF1348848228210183801560
:406A0000B8810F48403084815B203080094800784007400F022807D0012801D10B482880FEBDFFE703208CE70848C01CF7E7000000102E40AC160020001F2E4074150020F9
:406A4000C0112E40001A2E4080142E40E0230000044800218183018302497420603908807047000060102E40074B1882064B6033988B00090001084399158843002A01D103
:406A80001021484098837047A0102E40F3B50D2284B0920100924A780B78120213430393CA788B78120213434A790979FF20120211431A4A8C46918B9E460291118B019146
:406AC0001649742260390A80154900220F7921E00121124B9140009C603BE3181D8889B21C881B88039E6E407546654064462E435C4026430CD1029B194209D00199D140A4
:406B0000CB070499DB0F8B4202D1104606B0F0BD521CD2B29742DBD8F8E7000060102E40B415002030B50949FF208C8B084A00210125137905E02A468A40224204D0491C31
:406B4000C9B28B42F7D830BD084630BD60102E40B415002010B50446E020FFF7C9FB20782246401CC3B20021E020FBF73FFD10BD42790021012A02D90121417109034279DC
:406B80000A430179042914D049001143827B032A01D8D2001143427B52010A43817909021143012252031143054A118300889083704711460122920211430222E5E700002E
:406BC00000102E4000B50120FFF7FEFA01494120088000BD00102E4000B50120FFF71AFB01494020088000BD00102E40024A10820148603081817047A0102E4010B5044CF4
:406C0000208204488180028183815143018210BDA0102E40A0132E40034B1882024820388180028070470000A0102E404178027809020A4306490A80C278837812021343D6
:406C40008B804279007912021043088170470000C0112E404178027809020A4306490A81C2788378120213438B81427900791202104308827047000060102E4041780278F2
:406C80000902084B0A431A83C178827809020A439A8341790079090208430249203108807047000040102E404178027809020A4306498A80C2788378120213430B814279F8
:406CC000007912021043888170470000001F2E4010B50446E820FFF70BFB20782246401CC3B20021E820FBF781FC10BD024A10820248818370470000A0102E40001A2E4095
:406D0000024A10820148603081807047A0102E4010B5044688000521FAF792FB04490C8204498880200202497230A039088010BDA0102E40001A2E40034908820002024955
:406D40007330A03908807047A0102E4003490882000202497030A03908807047A0102E4003490882000202497130A03908807047A0102E40F8B505461C4617460E460846EE
:406D800000F090F8054AB90021431582034AA03A80180180024880194455F8BDA0102E409F0D0020034A118B8905890D8002084310837047A0102E4030B50E4C238A0125A9
:406DC0001A46012804D0022804D000290BD00CE02A430AE0002908D12A4322825008400020821A4601E05A0852009A4200D0228230BD0000001A2E40054A1082044A603229
:406E0000908B4023984389010143918370470000A0102E40044A118A0223002801D0194300E0994311827047001A2E4000B5064A1082054860300181002901D0012000E060
:406E40000020FFF7E7FF00BDA0102E40024A801802880A430280704700102E4070B5084BC5182C880023080003D104E040085B1C9BB2C607FAD08C439A4022432A8070BD55
:406E800000102E40024A1018405C8007800F70479F0D0020024908820148803080897047A0102E408000FF3041307047044B02461B8AFF208B4202D902484018805C7047F0
:406EC000AC1600209A0D0020024908820148803000897047A0102E40174902460B680020002B08D10A605207520F012A04D0022A10D0086012207047112292018A80CA80E4
:406F0000032252020A810122D2024A8140228A8105220DE0092252028A80CA80012252030A810322D2024A81012252028A810422CA810A8270470000AC1600200A4600B553
:406F400001461046FFF7B2FF00BD38B50C4605460021684600910AF00FFA002804D1009928464C7000F018FC38BD10B5044680780021FFF73BFE01212046FFF7D7F810BDF9
:406F8000436E002B0CD00B60014660318B781370826E4266CA788A700021816608467047FF20704710B50346446E6033002C04D0846E002C04D0FF2010BD41669A7001E0D6
:406FC0008166DA70002010BD0021416681667047406E002801D000207047FF20704770B50446C0790D46810610D5DF210840E07100F0F4FE0570218941804034218A8180D7
:40700000618AC180A18A018101F04EFC70BD000010B50446FEF7F6FD01280AD1A1789020054A484380186030007FFDF735F8012801D000F015FB10BDC0150020F8B50E46EC
:407040000446FCF76BFE01282BD02079042801D0072825D1F079B77900020743A0783946FFF7EEFA25464035012820D03A46711C204600F09EFA02212046FDF77AFDA07D2C
:40708000C107C90F0220FFF797FE688A002807D0E87E002804D1032109020820FFF7A0F8F8BD01222421204600F02EFBF8BD282028732046FEF7C2F8F8BD70B50D46064688
:4070C000FDF7CAFC002852D120213046FDF791F93446687840346073E87820220002E081A9780843E0816879010228790843218A814203D0F1791143F1712082E8790102AC
:40710000A8790843618A814203D0F1791143F1716082687A0102287A0843A18AE180814203D0F1791143F171A082A08A218A8000FAF786F9401E618A80B2814200D960826C
:4071400001213046FDF718FDE87AA97A000201430022304600F048FB608A002807D0E07E002804D1032109020820FFF739F870BDF8B50C4605460027FCF7D0FD012847D078
:40718000284E307BC00709D02846403000900078002806D0102803D01F212CE01A212AE001272846FEF754F9002823D02E4680360822611C7068FAF76EFA7068617A203096
:4071C0000172A17A417270682146183008220B31FAF761FA21462846042213313430FAF75AFA39462846FDF7DDFE002810D1002F0FD012E007210322284600F085FA728B41
:4072000008212846FDF7EAF811212846FDF7B7FCF8BD06212846FDF7B5FC009801210176F8BD00007415002010B5FDF7FBFE10BDF8B504460020009020790D46032803D00C
